:020000040800F2
:10000000000002207D1200083106000833060008B7
:100010003506000837060008390600080000000011
:100020000000000000000000000000003B06000887
:100030003D060008000000003F06000841060008D9
:10004000CD120008CD120008CD120008CD12000814
:10005000CD120008CD120008CD120008CD12000804
:10006000CD120008CD120008CD120008CD120008F4
:10007000CD120008CD120008CD120008CD120008E4
:10008000CD120008CD120008CD120008CD120008D4
:10009000CD120008CD120008CD120008CD120008C4
:1000A000CD120008CD120008CD120008CD120008B4
:1000B000CD120008CD120008CD120008CD120008A4
:1000C000CD120008CD120008CD120008CD12000894
:1000D000CD120008CD120008CD120008CD12000884
:1000E000CD120008CD120008CD120008CD12000874
:1000F000CD120008CD120008CD120008CD12000864
:10010000CD120008CD120008CD120008CD12000853
:10011000CD120008CD120008CD120008CD12000843
:10012000CD120008CD120008CD120008CD12000833
:10013000CD120008CD120008CD120008CD12000823
:10014000CD120008CD120008CD120008CD12000813
:10015000CD120008CD120008CD120008CD12000803
:10016000CD120008CD120008CD120008CD120008F3
:10017000CD120008CD120008CD12000800000000CA
:08018000CD120008CD120008A9
:1001880010B5054C237833B9044B13B10448AFF3C9
:1001980000800123237010BD0C0000200000000027
:1001A8002813000808B5034B1BB103490348AFF3F4
:1001B800008008BD0000000010000020281300087F
:1001C80053B94AB9002908BF00281CBF4FF0FF31B6
:1001D8004FF0FF3000F074B9ADF1080C6DE904CEB2
:1001E80000F006F8DDF804E0DDE9022304B070470A
:1001F8002DE9F047089D04468E46002B4DD18A42D2
:10020800944669D9B2FA82F252B101FA02F3C2F104
:10021800200120FA01F10CFA02FC41EA030E944095
:100228004FEA1C48210CBEFBF8F61FFA8CF708FBB6
:1002380016E341EA034306FB07F199420AD91CEB8E
:10024800030306F1FF3080F01F81994240F21C81C0
:10025800023E63445B1AA4B2B3FBF8F008FB103308
:1002680044EA034400FB07F7A7420AD91CEB04043D
:1002780000F1FF3380F00A81A74240F2078164440D
:10028800023840EA0640E41B00261DB1D440002392
:10029800C5E900433146BDE8F0878B4209D9002DF6
:1002A80000F0EF800026C5E9000130463146BDE880
:1002B800F087B3FA83F6002E4AD18B4202D38242EA
:1002C80000F2F980841A61EB030301209E46002D99
:1002D800E0D0C5E9004EDDE702B9FFDEB2FA82F2EE
:1002E800002A40F09280A1EB0C014FEA1C471FFA4C
:1002F8008CFE0126200CB1FBF7F307FB131140EA33
:1003080001410EFB03F0884208D91CEB010103F1FF
:10031800FF3802D2884200F2CB804346091AA4B2C1
:10032800B1FBF7F007FB101144EA01440EFB00FE95
:10033800A64508D91CEB040400F1FF3102D2A645FA
:1003480000F2BB800846A4EB0E0440EA03409CE799
:10035800C6F12007B34022FA07FC4CEA030C20FA46
:1003680007F401FA06F31C43F9404FEA1C4900FA66
:1003780006F3B1FBF9F8200C1FFA8CFE09FB1811E3
:1003880040EA014108FB0EF0884202FA06F20BD956
:100398001CEB010108F1FF3A80F08880884240F2A6
:1003A8008580A8F102086144091AA4B2B1FBF9F0EA
:1003B80009FB101144EA014100FB0EFE8E4508D9E5
:1003C8001CEB010100F1FF346CD28E456AD902386A
:1003D800614440EA0840A0FB0294A1EB0E01A1424F
:1003E800C846A64656D353D05DB1B3EB080261EBBD
:1003F8000E0101FA07F722FA06F3F1401F43C5E997
:10040800007100263146BDE8F087C2F12003D840CC
:100418000CFA02FC21FA03F3914001434FEA1C470E
:100428001FFA8CFEB3FBF7F007FB10360B0C43EA00
:10043800064300FB0EF69E4204FA02F408D91CEBB0
:10044800030300F1FF382FD29E422DD902386344AE
:100458009B1B89B2B3FBF7F607FB163341EA03414E
:1004680006FB0EF38B4208D91CEB010106F1FF389D
:1004780016D28B4214D9023E6144C91A46EA004694
:1004880038E72E46284605E70646E3E61846F8E626
:100498004B45A9D2B9EB020864EB0C0E0138A3E76F
:1004A8004646EAE7204694E74046D1E7D0467BE750
:1004B800023B614432E7304609E76444023842E7C8
:1004C800704700BF72B6FEE700B595B03022002134
:1004D80008A800F01DFF00230393049305930693D7
:1004E800079301931F4A116C41F080511164126CFB
:1004F80002F080520192019A02931B4B1A6842F44F
:1005080080421A601B6803F480430293029B012314
:1005180008934FF48033099302230E934FF480021B
:100528000F9219221092902211921293042313937E
:1005380008A800F0A1F880B90F23039302210491C1
:10054800002305934FF480530693079303A800F004
:10055800E1FA20B915B05DF804FBFFF7B3FFFFF728
:10056800B1FF00BF003802400070004008B500F03D
:100578002DFDFFF7A9FF00F00DF800F071FD4FF415
:100588008051034800F094FCC82000F04BFDF6E7CA
:10059800000C024010B58AB0002405940694079414
:1005A8000894099401941D4B1A6B42F001021A63D6
:1005B8001A6B02F001020192019A02941A6B42F03E
:1005C80002021A631A6B02F002020292029A039460
:1005D8001A6B42F004021A631A6B02F004020392C7
:1005E800039A04941A6B42F008021A631B6B03F017
:1005F80008030493049B22461021094800F052FC8A
:100608004FF480530593012306930794089405A992
:10061800044800F055FB0AB010BD00BF0038024086
:1006280000040240000C0240FEE7FEE7FEE7FEE79A
:10063800FEE770477047704708B500F0E1FC08BD59
:1006480082B0002100910B4B5A6C42F480425A64EC
:100658005A6C02F480420092009A01911A6C42F09E
:1006680080521A641B6C03F080530193019B02B003
:10067800704700BF00380240002800F0E08170B5E4
:1006880082B00446036813F0010F3BD09F4B9B6870
:1006980003F00C03042B2CD09C4B9B6803F00C0339
:1006A800082B21D06368B3F5803F4FD0B3F5A02F56
:1006B80052D0964B1A6822F480321A601A6822F4D3
:1006C80080221A606368002B50D000F0A5FC054614
:1006D8008E4B1B6813F4003F14D100F09DFC401BA7
:1006E8006428F5D90320B1E1884B5B6813F4800FC7
:1006F800D8D0864B1B6813F4003F03D06368002BE7
:1007080000F09F81236813F0020F54D07F4B9B6841
:1007180013F00C0F3ED07D4B9B6803F00C03082BA5
:1007280033D0E368002B68D0794B01221A6000F0BF
:1007380073FC0546754B1B6813F0020F54D100F08B
:100748006BFC401B0228F5D903207FE16F4A136830
:1007580043F480331360B5E76C4B1A6842F4802287
:100768001A601A6842F480321A60ABE700F054FC51
:100778000546664B1B6813F4003FC3D000F04CFCE1
:10078800401B6428F5D9032060E1604B5B6813F4D3
:10079800800FC6D15D4B1B6813F0020F03D0E368CE
:1007A800012B40F05081594A136823F0F80321695E
:1007B80043EAC1031360236813F0080F42D063694A
:1007C8006BB3534B0122C3F8802E00F025FC05467D
:1007D8004E4B5B6F13F0020F34D100F01DFC401B31
:1007E8000228F5D9032031E1484A136823F0F803B9
:1007F800216943EAC1031360DDE7454B00221A6013
:1008080000F00AFC0546414B1B6813F0020FD2D0DA
:1008180000F002FC401B0228F5D9032016E13C4BEE
:100828000022C3F8802E00F0F7FB0546374B5B6FBC
:1008380013F0020F06D000F0EFFB401B0228F5D999
:10084800032003E1236813F0040F77D02F4B1B6CB0
:1008580013F0805F33D1002301932C4B1A6C42F0C4
:1008680080521A641B6C03F080530193019B01258D
:10087800284B1B6813F4807F23D0A368012B34D046
:10088800052B38D0214B1A6F22F001021A671A6F14
:1008980022F004021A67A368002B3DD000F0BCFBCD
:1008A80006461A4B1B6F13F0020F46D100F0B4FB3B
:1008B800801B41F288339842F3D90320C6E0002513
:1008C800D6E7144A136843F48073136000F0A4FB5E
:1008D8000646104B1B6813F4807FCED100F09CFBBA
:1008E800801B0228F5D90320B0E0084A136F43F0B3
:1008F80001031367CFE7054B1A6F42F004021A672A
:100908001A6F42F001021A67C5E700BF00380240BB
:10091800000047420070004000F07EFB0646524B44
:100928001B6F13F0020F08D000F076FB801B41F21A
:1009380088339842F3D9032088E0EDB9A369002BE6
:1009480000F08380484A926802F00C02082A51D0CD
:10095800022B17D0454B00221A6600F05DFB0446B7
:10096800414B1B6813F0007F42D000F055FB001B81
:100978000228F5D9032069E03B4A136C23F0805321
:100988001364DBE7394B00221A6600F045FB054685
:10099800354B1B6813F0007F06D000F03DFB401B71
:1009A8000228F5D9032051E0E369226A1343626AF9
:1009B80043EA8213A26A5208013A43EA0243E26A0E
:1009C80043EA0263284A5360284B01221A6600F062
:1009D80023FB0446244B1B6813F0007F06D100F06C
:1009E8001BFB001B0228F5D903202FE000202DE077
:1009F80000202BE0012B2BD01B4B5B6803F48001FC
:100A0800E269914226D103F03F02216A8A4223D14A
:100A1800616A47F6C0721A40B2EB811F1ED103F417
:100A28004031A26A5208013AB1EB024F18D103F0E3
:100A38007063E26AB3EB026F14D1002006E0012074
:100A48007047012002E0012000E0002002B070BDE4
:100A58000120FBE70120F9E70120F7E70120F5E78E
:100A68000120F3E70120F1E7003802400000474287
:100A780008B5254B9B6803F00C03042B3FD0082BCB
:100A88003FD1214B5A6802F03F025B6813F4800F94
:100A980012D01D4B5968C1F388111C480023A1FBD3
:100AA8000001FFF78DFB184B5B68C3F3014301336B
:100AB8005B00B0FBF3F025E0134B5968C1F3881CC9
:100AC8004FEA4C11B1EB0C006EEB0E0E4FEA8E1391
:100AD80043EA90638101091A63EB0E03DB0043EAE2
:100AE8005173C90011EB0C0C43F100039902002368
:100AF8004FEA8C2041EA9C51FFF762FBD3E7034899
:100B080000E0034808BD00BF0038024040787D017E
:100B18000024F400002800F09B8070B50D460446C0
:100B28004F4B1B6803F007038B4208D2CBB24C4AE9
:100B38001370136803F007038B4240F08B8023681F
:100B480013F0020F17D013F0040F04D0454A93682E
:100B580043F4E0539360236813F0080F04D0414A2C
:100B6800936843F4604393603E4A936823F0F0032C
:100B7800A1680B439360236813F0010F32D06368B8
:100B8800012B21D09A1E012A25D9364A126812F063
:100B9800020F61D033498A6822F0030213438B6045
:100BA80000F03AFA06462F4B9B6803F00C03626884
:100BB800B3EB820F16D000F02FFA801B41F2883376
:100BC8009842F0D9032042E0264A126812F4003F06
:100BD800E0D101203BE0234A126812F0007FD9D10E
:100BE800012034E01E4B1B6803F00703AB4207D912
:100BF800EAB21B4B1A701B6803F00703AB422DD1F6
:100C0800236813F0040F06D0164A936823F4E053C0
:100C1800E1680B439360236813F0080F07D0114A6B
:100C2800936823F46043216943EAC1039360FFF7A3
:100C38001FFF0C4B9B68C3F303130B4AD35CD840CC
:100C48000A4B18600A4B186800F09AF9002070BD2A
:100C5800012070470120FAE70120F8E70120F6E7B4
:100C6800003C024000380240401300080800002001
:100C780004000020014B1868704700BF08000020DE
:100C880008B5FFF7F7FF044B9B68C3F38223034AB9
:100C9800D35CD84008BD00BF00380240501300089C
:100CA80008B5FFF7E7FF044B9B68C3F34233034AD9
:100CB800D35CD84008BD00BF00380240501300087C
:100CC80000230F2B00F2E48070B582B060E08568E5
:100CD8005E000324B44025EA0405CC68B4402C43E4
:100CE8008460456825EA02054C68C4F300129A40FE
:100CF8002A4342605AE0DC08083450F8246003F0C4
:100D0800070295000F22AA4026EA020E0A69AA40A5
:100D180042EA0E0240F824205CE0072200E00022AC
:100D280002FA0EF22A4302345A4D45F824205A4A50
:100D380094686FEA0C0224EA0C054E6816F4801FCA
:100D480001D04CEA0405544CA560E46802EA0405A5
:100D58004E6816F4001F01D04CEA04054E4CE560BD
:100D6800646802EA04054E6816F4003F01D04CEAB4
:100D78000405494C6560246822404D6815F4803F9D
:100D880001D04CEA0402444C226001330F2B7DD879
:100D980001229A400C6804EA020C32EA0404F4D1F5
:100DA8004C6804F00304013C012C90D94A6802F015
:100DB8000302032A09D0C4685D000322AA4024EA7A
:100DC80002048A68AA402243C2604A6802F0030209
:100DD800022A90D004684FEA430E032202FA0EF268
:100DE80024EA02044A6802F0030202FA0EF22243DD
:100DF80002604A6812F4403FC7D000220192274A95
:100E0800546C44F480445464526C02F4804201925D
:100E1800019A9C08A51C1F4A52F8255003F00302AA
:100E28004FEA820E0F2202FA0EF225EA02051C4A48
:100E380090423FF474AF02F5806290421AD002F5F6
:100E48008062904218D002F58062904216D002F576
:100E58008062904214D002F58062904212D002F56E
:100E68008062904210D002F5806290423FF455AF04
:100E7800082255E7012253E7022251E703224FE7F0
:100E880004224DE705224BE7062249E702B070BD70
:100E9800704700BF00380140003C01400038024064
:100EA800000002400AB181617047090481617047FE
:100EB800436901EA030221EA030141EA024181612F
:100EC80070470000074AD36823F4E0631B041B0C37
:100ED800000200F4E060034343F0BF6343F40033CF
:100EE800D360704700ED00E000B5194BDB68C3F331
:100EF8000223C3F1070CBCF1040F28BF4FF0040C08
:100F080003F1040EBEF1060F18D9033B4FF0FF3E64
:100F18000EFA0CFC21EA0C0199400EFA03F322EABE
:100F28000303194300280BDB0901C9B200F1604033
:100F380000F5614080F800135DF804FB0023E5E745
:100F480000F00F000901C9B2024B1954F4E700BFC1
:100F580000ED00E014ED00E00138B0F1807F0BD225
:100F68004FF0E0235861054AF02182F82310002051
:100F7800986107221A6170470120704700ED00E070
:100F880010B504460E4B18784FF47A73B3FBF0F3A0
:100F98000C4A1068B0FBF3F0FFF7DEFF68B90F2CBE
:100FA80001D901200AE0002221464FF0FF30FFF767
:100FB8009BFF054B1C60002000E0012010BD00BF16
:100FC80000000020080000200400002008B50B4B9A
:100FD8001A6842F400721A601A6842F480621A6051
:100FE8001A6842F480721A600320FFF76BFF0F2023
:100FF800FFF7C6FFFFF724FB002008BD003C0240B6
:10100800034A1168034B1B780B441360704700BFF9
:101018002800002000000020014B1868704700BF1E
:101028002800002038B50446FFF7F6FF0546B4F15E
:10103800FF3F02D0044B1B781C44FFF7EDFF401B19
:10104800A042FAD338BD00BF00000020034AD2F8FE
:10105800883043F47003C2F88830704700ED00E030
:1010680008B50A480A4B03604FF4E1334360002394
:101078008360C36003610C2242618361C36100F035
:10108800C9F800B908BDFFF71DFAFBE72C000020DE
:101098000044004000B589B00023039304930593EE
:1010A800069307930268154B9A4202D009B05DF87F
:1010B80004FB0021019103F5FA331A6C42F4003263
:1010C8001A641A6C02F400320192019A02911A6BA6
:1010D80042F001021A631B6B03F001030293029BA7
:1010E8000C230393022304930323069307230793F4
:1010F80003A90348FFF7E4FDD8E700BF0044004018
:101108000000024038B504460268136923F44053CE
:10111800C1680B431361836802691343426913432F
:10112800C2691A430168CB6823F4164323F00C0301
:101138001343CB600268536923F4407381690B43FE
:1011480053610368314A934206D002F580629342A4
:1011580002D0FFF795FD01E0FFF7A2FDE369B3F5C3
:10116800004F29D00021031849411B1841F1000103
:10117800C90041EA5371DB00181863684FEA83021B
:101188004FEA937341F10001FFF71AF8204DA5FBD0
:1011980000325109642303FB11031B013233A5FB01
:1011A80003235B0903F0F00202EB011203F00F03C3
:1011B800216813448B6038BD0023021843EB0301F8
:1011C800121841F10001C90041EA5271D200101809
:1011D80041F10001626892185B41FEF7F1FF0C4D86
:1011E800A5FB00325109642303FB1103DB003233F2
:1011F800A5FB03235B095A0002F4F87202EB011203
:1012080003F00703216813448B60D4E70010014002
:101218001F85EB5160B310B5044690F8413013B305
:10122800242384F841302268D36823F40053D36020
:101238002046FFF767FF2268136923F49043136180
:101248002268536923F02A0353612268D36843F460
:101258000053D36000206064202384F8413084F870
:101268004230606310BD80F84030FFF713FFD7E7C6
:1012780001207047DFF834D0FFF7E8FE0C480D492D
:101288000D4A002302E0D458C4500433C4188C42D9
:10129800F9D30A4A0A4C002301E013600432A2423F
:1012A800FBD300F011F8FFF761F970470000022046
:1012B800000000200C000020681300080C0000202B
:1012C80074000020FEE7000070B50D4D0D4C641B46
:1012D800A4100026A64209D10B4D0C4C00F020F8B2
:1012E800641BA4100026A64205D170BD55F8043B26
:1012F80098470136EEE755F8043B98470136F2E780
:1013080060130008601300086013000864130008E5
:1013180002440346934200D1704703F8011BF9E7E2
:10132800F8B500BFF8BC08BC9E467047F8B500BFCA
:08133800F8BC08BC9E4670479A
:101340000000000000000000010203040607080975
:0813500000000000010203048B
:08135800A0EEFF7F0100000080
:04136000AD010008D3
:0413640089010008F3
:0C13680001000000100000000024F40050
:040000050800127D60
:00000001FF
